:101369006164635F76616C7565202844726F7041B2
:101379006E644176657261676529203A000D0A003D
:101109004100060041000D004100080041000F00A8
:1011190042001000004400170000000042001500C2
:101129000042002400004200130000410012004167
:1011390000000141000101420002000042000400D8
:0111490000A5
:1013A4007401A807088002C333D8FCFF900012E040
:0A13B4005F60047F0180027F0022C9
:1011FC00ED6016900012E0FE7401A807088002C38F
:10120C0033D8FC4E900012F022900012E0FE7401D4
:10121C00A807088002C333D8FCF45E900012F022B9
:0B118C0090003EEBF0A3EAF0A3E9F0B6
:10119700E4FFFE90003EE0FBA3E0FAA3E0F98F82B4
:1011A7008E831203BB601B90003EE0A3E0A3E00F19
:1011B700EFAC0670010E14F5828C831203BBF59910
:0211C70080D1D5
:0111C9002203
:040C9200AB07AA06FC
:100C960090003AE4F0A3740FF090003AE0FEA3E06F
:100CA600242AF58274003EF583E4F0EBAE02781F49
:100CB600CEC313CE13D8F9FF90003CEEF0A3EFF0AD
:100CC6004E600DEBF4FFEAF4FEEF2401FBE43EFA7E
:100CD60090003BE024FFF090003AE034FFF07C0007
:100CE6007D0AAF03AE021203FAED2430FFE0FCA347
:100CF600E0242AF58274003CF583EFF07C007D0A3F
:100D0600AF03AE021203FAAA06AB07EB4A70C19014
:100D1600003CE07002A3E0601E90003BE024FFF080
:100D260090003AE034FFF0E0FEA3E0242AF5827456
:100D3600003EF583742DF090003AE0FEA3E0242AED
:0A0D4600F974003EFA7B0112118CD3
:010D50002280
:1013BE00900000E06005D294E4F022C29490000008
:0313CE007401F0B7
:0113D10022F9
:1013D200900001E06005D293E4F022C293900001F4
:0313E2007401F0A3
:0113E50022E5
:1011CA00A2AF9200C2AF75C7AA75C755E4F591A23E
:1011DA000092AF53B3F743B408A2AF9200C2AF75FF
:1011EA00C7AA75C755F591A20092AF53B3EF43B49E
:0211FA001022C1
:04101D00AD07AC0669
:10102100E4FBFAAFD1EF7F00FEABD9E42BFFEA3E40
:10103100CF2401CF3400FE1203E87C007D6412034B
:10104100FAAA06AB07A2AF9200C2AF75C7AA75C7CD
:1010510055759101A20092AFEAF5C4EFF5CCA2AFAC
:101061009200C2AF75C7AA75C755E4F591A2009267
:05107100AFD2DED2DF6A
:011076002257
:04002600AD07AC0670
:10002A00E4FBFAAFD1EF7F00FEABD9E42BFFEA3E47
:10003A00CF2401CF3400FE1203E87C007D64120352
:0F004A00FAAA06AB07EAF5D5EFF5DDD2DED2DF75
:010059002284
:080AE200900026EEF0A3EFF0F6
:100AEA00A312057100000000A2AF9200C2AF75C741
:100AFA00AA75C755E4F591A20092AF53B1FD43B26E
:100B0A000243DE10A2AF9200C2AF75C7AA75C755DD
:100B1A00F591A20092AF53B1FE43B20143DE0853EE
:100B2A00DF3F53DFF843DF05900028120571000B01
:100B3A0071B0900028E0FCA3E0FDA3E0FEA3E0FF73
:100B4A00C006C007900026E0FEA3E0FFFBAA06E469
:100B5A00F9F8D007D0061204A19000281205659072
:100B6A000028E0FCA3E0FDA3E0FEA3E024FFFFEEE3
:100B7A0034FFFEED34FFFDEC34FFFC900028120533
:100B8A0065900028E0FCA3E0FDA3E0FEA3E0FF7867
:100B9A00081205528FD1900028E0FCA3E0FDA3E0E3
:100BAA00FEA3E0FFE48FD97F1EFE12101D7F417E57
:040BBA0000120026FF
:010BBE002214
:10099B00A2AF9200C2AF75C7AA75C755439F01A2FC
:1009AB000092AF75AF0475A60DE4F5A7A2AF920048
:1009BB00C2AF75C7AA75C75543A401A20092AFADCC
:1009CB00AEED54F0900026F0ED540FFD75A60CE43F
:1009DB00F5A7A2AF9200C2AF75C7AA75C75543A4BE
:1009EB0001A20092AFAFAEEF75F010A47C002DFD0D
:1009FB00EC35F0FCE4120301900009120565E4FFED
:100A0B00FE7D407C40900009E0F8A3E0F9A3E0FAFA
:100A1B00A3E0FB120156E4FBFA7980784012025FE7
:100A2B00900020120565A2AF9200C2AF75C7AA75E0
:100A3B00C755539FFEA20092AFA2AF9200C2AF75F3
:100A4B00C7AA75C755E4F591A20092AF53E8F043DE
:100A5B00E80853E8F843E10143E13043E20E43A2D7
:100A6B0010A2AF9200C2AF75C7AA75C755F591A278
:100A7B000092AFC2EFA2AF9200C2AF75C7AA75C703
:100A8B0055F591A20092AFD2EE30EFFD900007E545
:100A9B00C3F090000EE5C2F0AFC3EF75F010A4AD3C
:100AAB00C27C002DFDEC35F0FCE4120301AB07AA70
:100ABB0006A905A804E4FFFE7D807C4512025F9029
:100ACB000020E0F8A3E0F9A3E0FAA3E0FB12015643
:060ADB0090001C120565ED
:010AE10022F2
:10125A00E4FEEEC39F502120EFFDE4900015F0A3B9
:10126A00F0A2AF9200C2AF75C7AA75C755F591A291
:0B127A000092AFD2EE0E80DAE4FEFF1F
:011285002246
:050F310090002AEFF022
:100F3600E4A3F0F090002AE0FFA3E0C39F5049200D
:100F4600EFFD900017E0F8A3E0F9A3E0FAA3E0FBB9
:100F5600900015E0FEA3E0FFE4FCFDEB2FFFEA3E68
:100F6600FEED39FDEC38FCA3120565A2AF9200C276
:100F7600AF75C7AA75C755E4F591A20092AFD2EE38
:100F860090002BE004F080AC900017E0FCA3E0FD9D
:100F9600A3E0FEA3E0FF7803120552900010EEF0E6
:100FA600FAA3EFF0FB90001712057100000000AFE6
:030FB60003AE0285
:010FB9002215
:1013E60090001712057100000000E4900010F0A3B1
:0213F600F022E3
:10122C00E4FDFCAD07AC0612030190001CE0F8A332
:10123C00E0F9A3E0FAA3E0FB1201567B007AF07907
:0D124C007F784512025F12033AAC06AD0731
:011259002272
:08080E0090002AEEF0A3EFF0C8
:10081600E4A3F0A3F0A3F0A3F090001CE0FCA3E097
:10082600FDA3E0FEA3E0FF12033A900030EEF0A332
:10083600EFF0E4A3F0A3F0A3F0A3F0A3F0A3F0A3DA
:10084600F0A37464F0900013EEF0A3EFF090003084
:10085600E0FEA3E0FF7C107D001205A2C006C007E3
:10086600900013E0FEA3E0FFFBAA06E4F9F8D00728
:10087600D0061204A190002CEEF0A3EFF090003207
:10088600E0FEA3E0FF7C107D001205A2C006C007B3
:10089600900013E0FEA3E0FFFBAA06E4F9F8D007F8
:1008A600D0061204A190002EEEF0A3EFF090002ADD
:1008B600E0FCA3E0FDD39FEC9E500A90002EE0FEE4
:1008C600A3E0FF8004AE04AF05900036EEF0A3EF80
:1008D600F090002CE0FCA3E0FDD39FEC9E5006AE0A
:1008E60004AF058008900036E0FEA3E0FF900036D6
:1008F600EEF0A3EFF090002EE0FCA3E0FDC3EF9D29
:10090600FDEE9CFCE4120301C004C005C006C0074E
:10091600900038E0FCA3E0FDE4120301D003D0020E
:10092600D001D000120156C004C005C006C0079011
:10093600002EE0FEA3E0FFC390002DE09FFD900097
:100946002CE09EFCE4120301A804A905AA06AB0745
:10095600D007D006D005D00412025FE4FBFA7980F6
:10096600783F12006512033A900034EEF0A3EFF0E0
:10097600E4FCFD7B64FAF9F8D312054150067E00CB
:100986007F648008900034E0FEA3E0FF900034EE20
:04099600F0A3EFF0EB
:01099A00223A
:100BBF00E4900026F0A3F0900028F0A3F090001C22
:100BCF00E0FCA3E0FDA3E0FEA3E0FF12033A9000D8
:100BDF0013EEF0A3EFF0E4900024F0A3F07F0412E3
:100BEF00125A900026EEF0A3EFF07F08120F31900B
:100BFF000026EEF0A3EFF07BFF7A13796912118CC8
:100C0F00900026E0FEA3E0FF120C927BFF7A13798F
:100C1F008612118C900024E0FEA3E0FFD3900027F2
:100C2F00E09F900026E09E50028008900026E0FE94
:100C3F00A3E0FF900026EEF0A3EFF0900026E0FE79
:100C4F00A3E0FFE4FCFDFB7A10F9F8D31205415045
:100C5F00067E107F008008900026E0FEA3E0FF9044
:100C6F000026EEF0A3EFF0900026E0FEA3E0FF12C7
:100C7F00080E900028EEF0A3EFF0900026E0FEA300
:020C8F00E0FF84
:010C91002240
:03005B00020FBAD7
:100FBA00C0E0C0F0C083C082C0D075D000C004C0F9
:100FCA0005C006C007C091AFC3EF75F010A4ADC24B
:100FDA007C002DFFEC35F0A2E713FEEF1325E0FFAE
:100FEA00EE33900015F0A3EFF0A2AF9200C2AF75F6
:100FFA00C7AA75C755759100A20092AFC2EFD091EA
:10100A00D007D006D005D004D0D0D082D083D0F07B
:03101A00D0E032F1
:1005CF00AB071213E6EBB4080040030207D4900503
:1005DF00E4F82828730205FC0206350206710206AC
:1005EF00AD0206E902072502076002079BA2AF9240
:1005FF0000C2AF75C7AA75C755E4F591A20092AFB7
:10060F0053E8F0A2AF9200C2AF75C7AA75C755F5F0
:10061F0091A20092AF43B38053B47FF5F643F60136
:10062F0043E1010207D4A2AF9200C2AF75C7AA750A
:10063F00C755E4F591A20092AF53E8F043E801A249
:10064F00AF9200C2AF75C7AA75C755F591A20092B8
:10065F00AF43AC0153ADFEF5F643F60243E10102A1
:10066F0007D4A2AF9200C2AF75C7AA75C755E4F5FC
:10067F0091A20092AF53E8F043E802A2AF9200C2FA
:10068F00AF75C7AA75C755F591A20092AF43B18058
:10069F0053B27FF5F643F60443E1010207D4A2AF4C
:1006AF009200C2AF75C7AA75C755E4F591A2009223
:1006BF00AF53E8F043E803A2AF9200C2AF75C7AAE9
:1006CF0075C755F591A20092AF43B14053B2BFF534
:1006DF00F643F60843E1010207D4A2AF9200C2AF7E
:1006EF0075C7AA75C755E4F591A20092AF53E8F00C
:1006FF0043E804A2AF9200C2AF75C7AA75C755F5FC
:10070F0091A20092AF43B12053B2DFF5F643F6103A
:10071F0043E1010207D4A2AF9200C2AF75C7AA7519
:10072F00C755E4F591A20092AF53E8F043E805A254
:10073F00AF9200C2AF75C7AA75C755F591A20092C7
:10074F00AF43B11053B2EFF5F643F62043E101800A
:10075F0074A2AF9200C2AF75C7AA75C755E4F591E1
:10076F00A20092AF53E8F043E806A2AF9200C2AFE7
:10077F0075C7AA75C755F591A20092AF43B108533B
:10078F00B2F7F5F643F64043E1018039A2AF92008C
:10079F00C2AF75C7AA75C755E4F591A20092AF53C2
:1007AF00E8F043E807A2AF9200C2AF75C7AA75C7BA
:1007BF0055F591A20092AF43B30253B4FDF5F64342
:1007CF00F68043E10143E13043E20E53A2EFA2AFC3
:1007DF009200C2AF75C7AA75C755E4F591A20092F2
:1007EF00AFC2EFA2AF9200C2AF75C7AA75C755F5DA
:0F07FF0091A20092AFD2EED2AED2AF120BBF22B8
:10128600900002E475F00112044FAFF0FEE4FCFD9D
:101296007BE87A03F9F8D3120541500AE49000027C
:0612A600F0A3F01213BEDC
:0112AC00221F
:03001B0002107759
:10107700C0E0C0F0C083C082C0D075D000C000C03F
:1010870001C002C003C004C005C006C00790000825
:10109700E0F58D90000FE0F58BC28F121286D00716
:1010A700D006D005D004D003D002D001D000D0D0D4
:0910B700D082D083D0F0D0E032E9
:1012FA00E4900026F0A3F053890F43891090000868
:10130A0074F8F090000F7430F0758DF8F58BD2AB4D
:04131A00D2AFD28EEE
:01131E0022AC
:1012AD00900004E475F00112044FAFF0FEE4FCFD74
:1012BD007BF47A01F9F8D3120541500AE490000449
:0612CD00F0A3F01213D2A1
:0112D30022F8
:03000B000210C020
:1010C000C0E0C0F0C083C082C0D075D000C000C0F6
:1010D00001C002C003C004C005C006C007900006DE
:1010E000E0F58C90000DE0F58AC28D1212ADD007AC
:1010F000D006D005D004D003D002D001D000D0D08B
:09110000D082D083D0F0D0E0329F
:10131F00E4900026F0A3F05389F043890190000672
:10132F0074F8F090000D7430F0758CF8F58AD2A92E
:04133F00D2AFD28CCB
:011343002287
:10138900AC07ECD3947F5012E4FF1213A4EF600A68
:0B139900E4FDFF1211FCAF04800022F5
:0300230002114B7C
:10114B00C0E0C083C082C0D075D000C000C004C056
:10115B0005C006C00730980E7D01E4FF1211FCAFED
:10116B0099121389C298309905200102C299D007B0
:10117B00D006D005D004D000D0D0D082D083D0E020
:01118B003231
:100D51009000261205710001C200A2AF9200C2AF3D
:100D610075C7AA75C755E4F591A20092AF53B1BFFB
:100D710053B2BF75985043878053C4F8A2AF920015
:100D8100C2AF75C7AA75C755F591A20092AF43C40A
:100D910020900026E0F8A3E0F9A3E0FAA3E0FB7FAE
:100DA100607EE37D167C001204A1C3E49FFFE49EF4
:100DB100FE74019DFDE49CFC78081205528FC690DB
:100DC1000026E0F8A3E0F9A3E0FAA3E0FB7F607E50
:100DD100E37D167C001204A1C3E49FFFE49EFE7430
:100DE100019DFDE49CFCEFE48FC5A2AF9200C2AF70
:100DF10075C7AA75C755F591A20092AF43C408D231
:070E0100ACD2AFD299D2017F
:010E080022C7
:100EA300E58720E403020F30A2AF9200C2AF75C7FB
:100EB300AA75C755439F01A20092AF75A638E4F502
:100EC300A775AF04A2AF9200C2AF75C7AA75C75585
:100ED30043A401A20092AF85AE0875A639F5A7A277
:100EE300AF9200C2AF75C7AA75C75543A401A2004C
:100EF30092AF85AE09A2AF9200C2AF75C7AA75C7FC
:100F030055539FFEA20092AF75C7AA75C7558508B2
:100F13008475C7AA75C755850985A2AF9200C2AF6C
:0D0F230075C7AA75C755539FFEA20092AF77
:010F3000229E
:10134400120EA3A2AF9200C2AF75C7AA75C755E427
:10135400F591A20092AFF5B1F5B2F5B3F5B4F5ACE1
:05136400F5ADD2AF223F
:1012D400121344120D517FE87E03120AE21211CA5E
:1012E40012131F1212FA12099B7F061205CF7F05F3
:0612F4001205CF80F42278
:03000000020E09E4
:100E0900787FE4F6D8FD9000007FFF7E03E4F0A32D
:0A0E1900DFFCDEFA758120020E5E98
:10005E000203A6E86480F8E933E83360110460F027
:10006E00ED33EC337009E8FCE9FDEAFEEBFF220408
:10007E0060DED3EB9FEA9EE99DE8C2E78CF0C2F703
:10008E0095F0400CE8CCF8E9CDF9EACEFAEBCFFBCF
:10009E0012037185D0F05804700320D5B3E80470B4
:1000AE00075002B2D50203B092D5EC0460F7E4CC4F
:1000BE00C0E0C398F8603B94186008400DD0E0FB98
:1000CE00020388E4FBFAC9FC8028E830E406E4C9A0
:1000DE00FBE4CAFCE830E305E4C9CACBFCE85407EC
:1000EE006010F8C3E913F9EA13FAEB13FBEC13FCF7
:1000FE00D8F130F52FC3E49CFCEF9BFFEE9AFEED9A
:10010E0099FDD0E0FBEF4E4D4C701222DB03020343
:10011E00ADEC2CFCEF33FFEE33FEED33FDED30E7AF
:10012E00EB020388EF2BFFEE3AFEED39FDD0E0FB3C
:10013E0050130BBB00030203B0ED13FDEE13FEEFE5
:08014E0013FFEC13FC0203880F
:10015600EC4D6011E8497017ED33EC3304600DE4A3
:10016600FCFFFEFD22E933E8330470F80203A61211
:10017600037158046009E4CC248150062850090212
:1001860003B02840030203ADC0E0EB4A7044B980D7
:1001960006D0E0FB02039CEF4E701CBD8008EBFF0F
:1001A600EAFEE9FD80EBE98DF0A4FEE5F002023FF0
:1001B600E9CDF9EAFEEBFFEF89F0A4FCE5F0CE8984
:1001C600F0A42EFFE435F0CD89F0A42DFEE435F041
:1001D6008067EF4E7005BD80D780C3EF8BF0A4AC6F
:1001E600F0EE8BF0A42CFCE435F0F8EF8AF0A42CAA
:1001F600E5F038FCE433CB8DF0A42CFCE5F03BF8BD
:10020600EE8AF0A42CFCE5F038F8E433CF89F0A4AC
:100216002CFCE5F038CF3400CE89F0A42FFFE5F0B2
:100226003EFEE433C98DF0A42EFEE5F039CD8AF00A
:10023600A42FFFE5F03EFEE43DFD33D0E0FB500782
:100246000BBB000F0203B0EC2CFCEF33FFEE33FECA
:06025600ED33FD020388F8
:10025C000203B0EC5D046005E8590470030203A6C8
:10026C00120371580460F6EC4860F2EC7004FDFE69
:10027C00FF22C860DB2481C85009C3986002500675
:10028C000203AD9850CAF582E9294B4A7005AB823E
:10029C0002039C75F0007C1A7880C3EF9BEE9AEDFC
:1002AC0099400DC3EF9BFFEE9AFEED99FDE842F0ED
:1002BC00DC23ACF0D0E0FFD0E0FED0E0FDAB822040
:1002CC00E7101BEB60BAEC2CFCEF33FFEE33FEEDCA
:1002DC0033FD020388E803F830E705C0F075F00041
:1002EC00EF2FFFEE33FEED33FD40B830E7C280AAAE
:1002FC0075F020800E75F010800575F0087D007E7D
:10030C00007F003392D530D503120533EC33401007
:10031C00EF33FFEE33FEED33FDEC33FCD5F0ED2285
:0E032C00E5F0247EA2D513CC92E7CDCEFF22C1
:10033A00EDD2E7CD33EC3392D524814006E4FFFEBB
:10034A00FDFC22FCE4CFCECDCC24E0501174FF801A
:10035A00EDC3CC13CCCD13CDCE13CECF13CF0470B7
:07036A00F030D5DE0205337F
:10037100E9D2E7C933E833F892D5EDD2E7CD33ECD2
:0703810033FC5002B2D5224B
:10038800EC30E7100FBF000C0EBE00080DBD0004D6
:100398000BEB6014A2D5EB13FCED92E7FD2274FF82
:1003A800FCFDFEFF22E480F8A2D574FF13FC7D80DB
:0303B800E480EFEF
:100E23000212D4E493A3F8E493A34003F68001F2FF
:100E330008DFF48029E493A3F85407240CC8C333D0
:100E4300C4540F4420C8834004F456800146F6DF9F
:100E5300E4800B0102040810204080901109E47E15
:100E6300019360BCA3FF543F30E509541FFEE49394
:100E7300A360010ECF54C025E060A840B8E493A35B
:100E8300FAE493A3F8E493A3C8C582C8CAC583CA86
:100E9300F0A3C8C582C8CAC583CADFE9DEE780BE3E
:01114A0000A4
:1003BB00BB010CE58229F582E5833AF583E02250F7
:1003CB0006E92582F8E622BBFE06E92582F8E22241
:0D03DB00E58229F582E5833AF583E493225B
:1003E800EF8DF0A4A8F0CF8CF0A428CE8DF0A42E29
:0203F800FE22E3
:1003FA00BC000BBE0029EF8DF084FFADF022E4CCE7
:10040A00F875F008EF2FFFEE33FEEC33FCEE9DECAF
:10041A00984005FCEE9DFE0FD5F0E9E4CEFD22EDF5
:10042A00F8F5F0EE8420D21CFEADF075F008EF2F3F
:10043A00FFED33FD4007985006D5F0F222C398FD30
:05044A000FD5F0EA22CD
:10044F00A3F8E0C5F025F0F0E58215827002158360
:06045F00E0C838F0E822BD
:1004650075F008758200EF2FFFEE33FECD33CDCC4E
:1004750033CCC58233C5829BED9AEC99E5829840D1
:100485000CF582EE9BFEED9AFDEC99FC0FD5F0D6AE
:10049500E4CEFBE4CDFAE4CCF9A88222B800C1B9D8
:1004A5000059BA002DEC8BF084CFCECDFCE5F0CB16
:1004B500F97818EF2FFFEE33FEED33FDEC33FCEB4F
:1004C50033FB10D703994004EB99FB0FD8E5E4F90A
:1004D500FA227818EF2FFFEE33FEED33FDEC33FCF7
:1004E500C933C910D7059BE99A4007EC9BFCE99AEB
:1004F500F90FD8E0E4C9FAE4CCFB2275F010EF2F30
:10050500FFEE33FEED33FDCC33CCC833C810D7072F
:100515009BEC9AE899400AED9BFDEC9AFCE899F86A
:0E0525000FD5F0DAE4CDFBE4CCFAE4C8F922FD
:0E053300C3E49FFFE49EFEE49DFDE49CFC22D9
:10054100EB9FF5F0EA9E42F0E99D42F0E89C45F010
:010551002287
:10055200E8600FECC313FCED13FDEE13FEEF13FF87
:03056200D8F122AB
:0C056500ECF0A3EDF0A3EEF0A3EFF02209
:10057100A8828583F0D083D0821205881205881263
:100581000588120588E473E493A3C583C5F0C58388
:10059100C8C582C8F0A3C583C5F0C583C8C582C8D4
:0105A1002237
:1005A200EC8EF0A4CCC5F0CCCDF8EFA4CEC5F02DE6
:1005B200FDE43CFCE8A42EC8C5F03DFDE43CFCEFA4
:0D05C200A4FFE5F028FEE43DFDE43CFC2232
:00000001FF
