:10151A006164635F76616C7565202844726F7041FF
:10152A006E644176657261676529203A000D0A008A
:10153A0000000000000000000000000000000000A1
:08154A00000000000000000099
:1014E00041002C004100330041002E004100350036
:1014F000420036000044003D0000000042003B0076
:101500000042004A00004200390000410038004219
:091510000028000042002A00003E
:0B146500900018EBF0A3EAF0A3E9F000
:10147000E4FFFE900018E0FBA3E0FAA3E0F98F82FE
:101480008E831204B1601B900018E0A3E0A3E00F6C
:10149000EFAC0670010E14F5828C831204B1F5993D
:0214A00080D1F9
:0114A2002227
:04102D00AB07AA065D
:10103100900014E4F0A3740FF0900014E0FEA3E01C
:101041002404F58274003EF583E4F0EBAE02781FD0
:10105100CEC313CE13D8F9FF900016EEF0A3EFF034
:101061004E600DEBF4FFEAF4FEEF2401FBE43EFADF
:10107100900015E024FFF0900014E034FFF07C00B4
:101081007D0AAF03AE021204F0ED2430FFE0FCA3B1
:10109100E02404F58274003CF583EFF07C007D0AC6
:1010A100AF03AE021204F0AA06AB07EB4A70C1907F
:1010B1000016E07002A3E0601E900015E024FFF02E
:1010C100900014E034FFF0E0FEA3E02404F5827404
:1010D100003EF583742DF0900014E0FEA3E024049B
:0A10E100F974003EFA7B0112146559
:0110EB0022E2
:03000300B2942292
:03000600B2932290
:10138900A2AF9200C2AF75C7AA75C755E4F591A27D
:101399000092AF53B3FB43B404A2AF9200C2AF753E
:1013A900C7AA75C755F591A20092AF53B3F743B4D5
:1013B90008A2AF9200C2AF75C7AA75C755F591A229
:0A13C9000092AF53B3EF43B41022BB
:04132F00AD07AC0654
:10133300E4FBFAAFD1EF7F00FEABD9E42BFFEA3E2B
:10134300CF2401CF3400FE1204DE7C007D6412043E
:10135300F0AA06AB07A2AF9200C2AF75C7AA75C7C2
:1013630055759101A20092AFEAF5C4EFF5CCA2AF97
:101373009200C2AF75C7AA75C755E4F591A2009252
:05138300AFD2DED2DF55
:011388002242
:04002600AD07AC0670
:10002A00E4FBFAAFD1EF7F00FEABD9E42BFFEA3E47
:10003A00CF2401CF3400FE1204DE7C007D6412045A
:0F004A00F0AA06AB07EAF5D5EFF5DDD2DED2DF7F
:010059002284
:080E7300900000EEF0A3EFF087
:100E7B00A31206CC00000000A2AF9200C2AF75C750
:100E8B00AA75C755E4F591A20092AF53B1FD43B2D9
:100E9B000243DE10A2AF9200C2AF75C7AA75C75549
:100EAB00F591A20092AF53B1FE43B20143DE08535A
:100EBB00DF3F53DFF843DF059000021206CC000B37
:100ECB0071B0900002E0FCA3E0FDA3E0FEA3E0FF05
:100EDB00C006C007900000E0FEA3E0FFFBAA06E4FB
:100EEB00F9F8D007D0061205FC9000021206C0904C
:100EFB000002E0FCA3E0FDA3E0FEA3E024FFFFEE75
:100F0B0034FFFEED34FFFDEC34FFFC9000021206C3
:100F1B00C0900002E0FCA3E0FDA3E0FEA3E0FF789D
:100F2B00081206AD8FD1900002E0FCA3E0FDA3E018
:100F3B00FEA3E0FFE48FD97F1EFE12132F7F417EAD
:040F4B00001200266A
:010F4F00227F
:100C4000A2AF9200C2AF75C7AA75C755439F01A254
:100C50000092AF75AF0475A60DE4F5A7A2AF9200A0
:100C6000C2AF75C7AA75C75543A401A20092AFAD24
:100C7000AEED54F0900000F0ED540FFD75A60CE4BD
:100C8000F5A7A2AF9200C2AF75C7AA75C75543A416
:100C900001A20092AFAFAEEF75F010A47C002DFD65
:100CA000EC35F0FCE412030190002F1206C0E4FFC3
:100CB000FE7D407C4090002FE0F8A3E0F9A3E0FA2D
:100CC000A3E0FB120156E4FBFA7980784012025F40
:100CD0009000461206C0A2AF9200C2AF75C7AA75B7
:100CE000C755539FFEA20092AFA2AF9200C2AF754C
:100CF000C7AA75C755E4F591A20092AF53E8F04337
:100D0000E80853E8F843E10143E13043E20E43A22F
:100D100010A2AF9200C2AF75C7AA75C755F591A2D0
:100D20000092AFC2EFA2AF9200C2AF75C7AA75C75B
:100D300055F591A20092AFD2EE30EFFD90002DE577
:100D4000C3F0900034E5C2F0AFC3EF75F010A4AD6E
:100D5000C27C002DFDEC35F0FCE4120301AB07AAC8
:100D600006A905A804E4FFFE7D807C4512025F9081
:100D70000046E0F8A3E0F9A3E0FAA3E0FB12015675
:060D80009000421206C0C3
:010D8600224A
:10158000E4FEEEC39F502120EFFDE490003BF0A36A
:10159000F0A2AF9200C2AF75C7AA75C755F591A268
:0B15A0000092AFD2EE0E80DAE4FEFFF6
:0115AB00221D
:0E0D8700900020EBF0A3EAF0A3E9F0A3EDF05A
:100D9500E4A3F0A304F0E4A3F0A3F0900025E0643D
:100DA500016003020E72F0900024F0900023E0141D
:100DB500FFA3E0C39F50E4E0FD2401FFE433FEEF11
:100DC50025E0FFEE33FE900020E0FBA3E0FAA3E070
:100DD500F98F828E8312055BFFAEF075F002EDA4EC
:100DE500F58285F08312055BD39FE5F09E407590F3
:100DF5000020E0A3E0A3E0900024E0FF75F002A44A
:100E0500F58285F08312055BFD900026E5F0F0A3E1
:100E1500EDF0EF2401FFE433FEEF25E0FFEE338F25
:100E250082F58312055BFFAEF0900024E075F002B9
:100E3500A4F58285F083EE8FF0120593900026E0ED
:100E4500FCA3E0FD900024E02401FFE433FEEF2540
:100E5500E0FFEE338F82F583EC8DF0120593900061
:0D0E6500257401F0900024E004F0020DB0AF
:010E7200225D
:100AF600E4900004F0A3F0EF2DFFEE3CA3F0A3EF8B
:100B0600F078087C007D017BFF7A15793A7E007FBC
:100B16001812048BE4900004F0A3F0900006E0FEA7
:100B2600A3E0FFC3900005E09F900004E09E504CB8
:100B360020EFFD90003BE0FCA3E0FD900005E025E2
:100B4600E0FF900004E033FE74082FF58274003E47
:100B5600F583ECF0A3EDF0A2AF9200C2AF75C7AA81
:100B660075C755E4F591A20092AFD2EE900005E06C
:100B760004F07006900004E004F0809F7B017A0088
:100B86007908900006E0A3E0FD120D87900004E4CA
:100B9600F0A37402F0900006E0FEA3E0FFE4EF2469
:100BA600FEFBEE34FFFAE434FFF9E434FFF890007C
:100BB60004E0FEA3E0FFE4FCFDD312069C404F9048
:100BC600003DE0F8A3E0F9A3E0FAA3E0FB900005FE
:100BD600E025E0FF900004E033FE74082FF58274F0
:100BE600003EF583E0FEA3E0FFE4FCFDEB2FFFEA09
:100BF6003EFEED39FDEC38FC90003D1206C090003B
:100C060005E004F07006900004E004F08087900090
:100C16003DE0FCA3E0FDA3E0FEA3E0FF780312069F
:100C2600AD900036EEF0FAA3EFF0FB90003D120611
:090C3600CC00000000AF03AE0287
:010C3F002292
:1016B40090003D1206CC00000000E4900036F0A338
:0216C400F02212
:10155200E4FDFCAD07AC06120301900042E0F8A3E3
:10156200E0F9A3E0FAA3E0FB1201567B007AF079DE
:0D1572007F784512025F12033AAC06AD0708
:01157F002249
:08096900900004EEF0A3EFF092
:10097100E4A3F0A3F0A3F0A3F0900042E0FCA3E015
:10098100FDA3E0FEA3E0FF12033A90000AEEF0A3FC
:10099100EFF0E4A3F0A3F0A3F0A3F0A3F0A3F0A37E
:1009A100F0A37464F0900039EEF0A3EFF090000A28
:1009B100E0FEA3E0FF7C107D001206FDC006C0072B
:1009C100900039E0FEA3E0FFFBAA06E4F9F8D007A6
:1009D100D0061205FC900006EEF0A3EFF090000C9B
:1009E100E0FEA3E0FF7C107D001206FDC006C007FB
:1009F100900039E0FEA3E0FFFBAA06E4F9F8D00776
:100A0100D0061205FC900008EEF0A3EFF090000470
:100A1100E0FCA3E0FDD39FEC9E500A900008E0FEAD
:100A2100A3E0FF8004AE04AF05900010EEF0A3EF49
:100A3100F0900006E0FCA3E0FDD39FEC9E5006AED3
:100A410004AF058008900010E0FEA3E0FF900010C5
:100A5100EEF0A3EFF0900008E0FCA3E0FDC3EF9DF2
:100A6100FDEE9CFCE4120301C004C005C006C007F2
:100A7100900012E0FCA3E0FDE4120301D003D002D8
:100A8100D001D000120156C004C005C006C00790B5
:100A91000008E0FEA3E0FFC3900007E09FFD900087
:100AA10006E09EFCE4120301A804A905AA06AB070F
:100AB100D007D006D005D00412025FE4FBFA79809A
:100AC100783F12006512033A90000EEEF0A3EFF0AA
:100AD100E4FCFD7B64FAF9F8D312069C50067E0013
:100AE1007F64800890000EE0FEA3E0FF90000EEE10
:040AF100F0A3EFF08F
:010AF50022DE
:100F5000E4900000F0A3F0900002F0A3F0900042B3
:100F6000E0FCA3E0FDA3E0FEA3E0FF12033A900043
:100F700039EEF0A3EFF0E490004AF0A3F07F041202
:100F80001580900000EEF0A3EFF0D2927D047C007B
:100F90007F087E00120AF6900000EEF0A3EFF0C288
:100FA000927BFF7A15791A121465900000E0FEA377
:100FB000E0FF12102D7BFF7A15793712146590002F
:100FC0004AE0FEA3E0FFD3900001E09F900000E024
:100FD0009E50028008900000E0FEA3E0FF90000019
:100FE000EEF0A3EFF0900000E0FEA3E0FFE4FCFDD4
:100FF000FB7A10F9F8D312069C50067E107F008011
:1010000008900000E0FEA3E0FF900000EEF0A3EFE8
:10101000F0900000E0FEA3E0FF120969900002EEEC
:0C102000F0A3EFF0900000E0FEA3E0FF62
:01102C0022A1
:03005B000212CCC2
:1012CC00C0E0C0F0C083C082C0D075D000C004C0E4
:1012DC0005C006C007C091AFC3EF75F010A4ADC236
:1012EC007C002DFFEC35F0A2E713FEEF1325E0FF99
:1012FC00EE3390003BF0A3EFF0A2AF9200C2AF75BB
:10130C00C7AA75C755759100A20092AFC2EFD091D4
:10131C00D007D006D005D004D0D0D082D083D0F066
:03132C00D0E032DC
:10072A00AB071216B4EBB40800400302092F900776
:10073A003FF82828730207570207900207CC0208DD
:10074A00080208440208800208BB0208F6A2AF9217
:10075A0000C2AF75C7AA75C755E4F591A20092AF5A
:10076A0053E8F0A2AF9200C2AF75C7AA75C755F594
:10077A0091A20092AF43B38053B47FF5F643F601DA
:10078A0043E10102092FA2AF9200C2AF75C7AA7551
:10079A00C755E4F591A20092AF53E8F043E801A2ED
:1007AA00AF9200C2AF75C7AA75C755F591A200925C
:1007BA00AF43AC0153ADFEF5F643F60243E1010245
:1007CA00092FA2AF9200C2AF75C7AA75C755E4F543
:1007DA0091A20092AF53E8F043E802A2AF9200C29E
:1007EA00AF75C7AA75C755F591A20092AF43B180FC
:1007FA0053B27FF5F643F60443E10102092FA2AF93
:10080A009200C2AF75C7AA75C755E4F591A20092C6
:10081A00AF53E8F043E803A2AF9200C2AF75C7AA8C
:10082A0075C755F591A20092AF43B14053B2BFF5D7
:10083A00F643F60843E10102092FA2AF9200C2AFC4
:10084A0075C7AA75C755E4F591A20092AF53E8F0AF
:10085A0043E804A2AF9200C2AF75C7AA75C755F59F
:10086A0091A20092AF43B12053B2DFF5F643F610DE
:10087A0043E10102092FA2AF9200C2AF75C7AA7560
:10088A00C755E4F591A20092AF53E8F043E805A2F8
:10089A00AF9200C2AF75C7AA75C755F591A200926B
:1008AA00AF43B11053B2EFF5F643F62043E10180AE
:1008BA0074A2AF9200C2AF75C7AA75C755E4F59185
:1008CA00A20092AF53E8F043E806A2AF9200C2AF8B
:1008DA0075C7AA75C755F591A20092AF43B10853DF
:1008EA00B2F7F5F643F64043E1018039A2AF920030
:1008FA00C2AF75C7AA75C755E4F591A20092AF5366
:10090A00E8F043E807A2AF9200C2AF75C7AA75C75D
:10091A0055F591A20092AF43B30253B4FDF5F643E5
:10092A00F68043E10143E13043E20E53A2EFA2AF66
:10093A009200C2AF75C7AA75C755E4F591A2009295
:10094A00AFC2EFA2AF9200C2AF75C7AA75C755F57D
:0F095A0091A20092AFD2EED2AED2AF120F5022C6
:1015AC00900028E475F001120545AFF0FEE4FCFD57
:1015BC007BE87A03F9F8D312069C500AE4900028D1
:0615CC00F0A3F012000381
:0115D20022F6
:03001B000213D3FA
:1013D300C0E0C0F0C083C082C0D075D000C000C0E0
:1013E30001C002C003C004C005C006C00790002EA0
:1013F300E0F58D900035E0F58BC28F1215ACD00768
:10140300D006D005D004D003D002D001D000D0D074
:09141300D082D083D0F0D0E03289
:10162000E4900000F0A3F053890F43891090002E3E
:1016300074F8F09000357430F0758DF8F58BD2ABFE
:04164000D2AFD28EC5
:011644002283
:1015D30090002AE475F001120545AFF0FEE4FCFD2E
:1015E3007BF47A01F9F8D312069C500AE490002A9E
:0615F300F0A3F012000657
:0115F90022CF
:03000B0002141CC0
:10141C00C0E0C0F0C083C082C0D075D000C000C096
:10142C0001C002C003C004C005C006C00790002C58
:10143C00E0F58C900033E0F58AC28D1215D3D007FD
:10144C00D006D005D004D003D002D001D000D0D02B
:09145C00D082D083D0F0D0E03240
:10164500E4900000F0A3F05389F043890190002C49
:1016550074F8F09000337430F0758CF8F58AD2A9DF
:04166500D2AFD28CA2
:01166900225E
:10166A00AC07EFD3947F501C900038E0FE30E004C2
:10167A007D0180027D00ED600BEE54FE900038F093
:05168A00AF0480002206
:030023000214A321
:1014A300C0E0C083C082C0D075D000C004C005C0F6
:1014B30006C00730980E900038E04401F0AF99124F
:1014C300166AC298309905200102C299D007D00646
:0D14D300D005D004D0D0D082D083D0E0323C
:1010EC009000001206CC0001C200A2AF9200C2AF69
:1010FC0075C7AA75C755E4F591A20092AF53B1BF5D
:10110C0053B2BF75985043878053C4F8A2AF920076
:10111C00C2AF75C7AA75C755F591A20092AF43C46B
:10112C0020900000E0F8A3E0F9A3E0FAA3E0FB7F35
:10113C00607EE37D167C001205FCC3E49FFFE49EF9
:10114C00FE74019DFDE49CFC78081206AD8FC690E0
:10115C000000E0F8A3E0F9A3E0FAA3E0FB7F607ED7
:10116C00E37D167C001205FCC3E49FFFE49EFE7435
:10117C00019DFDE49CFCEFE48FC5A2AF9200C2AFD1
:10118C0075C7AA75C755F591A20092AF43C408D292
:07119C00ACD2AFD299D201E1
:0111A3002229
:10123E00E58720E4030212CBA2AF9200C2AF75C7BE
:10124E00AA75C755439F01A20092AF75A638E4F563
:10125E00A775AF04A2AF9200C2AF75C7AA75C755E6
:10126E0043A401A20092AF85AE0875A639F5A7A2D8
:10127E00AF9200C2AF75C7AA75C75543A401A200AD
:10128E0092AF85AE09A2AF9200C2AF75C7AA75C75D
:10129E0055539FFEA20092AF75C7AA75C755850814
:1012AE008475C7AA75C755850985A2AF9200C2AFCE
:0D12BE0075C7AA75C755539FFEA20092AFD9
:0112CB002200
:10168F0012123EA2AF9200C2AF75C7AA75C755E43A
:10169F00F591A20092AFF5B1F5B2F5B3F5B4F5AC93
:0516AF00F5ADD2AF22F1
:1015FA0012168F1210EC7FE87E03120E73121389F3
:10160A00121645121620120C407F0612072A7F0571
:06161A0012072A80F422F1
:030000000211A446
:1011A400787FE4F6D8FD9000007FFF7E03E4F0A38F
:0A11B400DFFCDEFA7581200211F95C
:10005E000203A6E86480F8E933E83360110460F027
:10006E00ED33EC337009E8FCE9FDEAFEEBFF220408
:10007E0060DED3EB9FEA9EE99DE8C2E78CF0C2F703
:10008E0095F0400CE8CCF8E9CDF9EACEFAEBCFFBCF
:10009E0012037185D0F05804700320D5B3E80470B4
:1000AE00075002B2D50203B092D5EC0460F7E4CC4F
:1000BE00C0E0C398F8603B94186008400DD0E0FB98
:1000CE00020388E4FBFAC9FC8028E830E406E4C9A0
:1000DE00FBE4CAFCE830E305E4C9CACBFCE85407EC
:1000EE006010F8C3E913F9EA13FAEB13FBEC13FCF7
:1000FE00D8F130F52FC3E49CFCEF9BFFEE9AFEED9A
:10010E0099FDD0E0FBEF4E4D4C701222DB03020343
:10011E00ADEC2CFCEF33FFEE33FEED33FDED30E7AF
:10012E00EB020388EF2BFFEE3AFEED39FDD0E0FB3C
:10013E0050130BBB00030203B0ED13FDEE13FEEFE5
:08014E0013FFEC13FC0203880F
:10015600EC4D6011E8497017ED33EC3304600DE4A3
:10016600FCFFFEFD22E933E8330470F80203A61211
:10017600037158046009E4CC248150062850090212
:1001860003B02840030203ADC0E0EB4A7044B980D7
:1001960006D0E0FB02039CEF4E701CBD8008EBFF0F
:1001A600EAFEE9FD80EBE98DF0A4FEE5F002023FF0
:1001B600E9CDF9EAFEEBFFEF89F0A4FCE5F0CE8984
:1001C600F0A42EFFE435F0CD89F0A42DFEE435F041
:1001D6008067EF4E7005BD80D780C3EF8BF0A4AC6F
:1001E600F0EE8BF0A42CFCE435F0F8EF8AF0A42CAA
:1001F600E5F038FCE433CB8DF0A42CFCE5F03BF8BD
:10020600EE8AF0A42CFCE5F038F8E433CF89F0A4AC
:100216002CFCE5F038CF3400CE89F0A42FFFE5F0B2
:100226003EFEE433C98DF0A42EFEE5F039CD8AF00A
:10023600A42FFFE5F03EFEE43DFD33D0E0FB500782
:100246000BBB000F0203B0EC2CFCEF33FFEE33FECA
:06025600ED33FD020388F8
:10025C000203B0EC5D046005E8590470030203A6C8
:10026C00120371580460F6EC4860F2EC7004FDFE69
:10027C00FF22C860DB2481C85009C3986002500675
:10028C000203AD9850CAF582E9294B4A7005AB823E
:10029C0002039C75F0007C1A7880C3EF9BEE9AEDFC
:1002AC0099400DC3EF9BFFEE9AFEED99FDE842F0ED
:1002BC00DC23ACF0D0E0FFD0E0FED0E0FDAB822040
:1002CC00E7101BEB60BAEC2CFCEF33FFEE33FEEDCA
:1002DC0033FD020388E803F830E705C0F075F00041
:1002EC00EF2FFFEE33FEED33FD40B830E7C280AAAE
:1002FC0075F020800E75F010800575F0087D007E7D
:10030C00007F003392D530D50312068EEC334010AB
:10031C00EF33FFEE33FEED33FDEC33FCD5F0ED2285
:0E032C00E5F0247EA2D513CC92E7CDCEFF22C1
:10033A00EDD2E7CD33EC3392D524814006E4FFFEBB
:10034A00FDFC22FCE4CFCECDCC24E0501174FF801A
:10035A00EDC3CC13CCCD13CDCE13CECF13CF0470B7
:07036A00F030D5DE02068E23
:10037100E9D2E7C933E833F892D5EDD2E7CD33ECD2
:0703810033FC5002B2D5224B
:10038800EC30E7100FBF000C0EBE00080DBD0004D6
:100398000BEB6014A2D5EB13FCED92E7FD2274FF82
:1003A800FCFDFEFF22E480F8A2D574FF13FC7D80DB
:0303B800E480EFEF
:1011BE000215FAE493A3F8E493A34003F68001F238
:1011CE0008DFF48029E493A3F85407240CC8C33332
:1011DE00C4540F4420C8834004F456800146F6DF01
:1011EE00E4800B01020408102040809014E0E47E9D
:1011FE00019360BCA3FF543F30E509541FFEE493F6
:10120E00A360010ECF54C025E060A840B8E493A3BC
:10121E00FAE493A3F8E493A3C8C582C8CAC583CAE7
:10122E00F0A3C8C582C8CAC583CADFE9DEE780BE9F
:0115190000D1
:1003BB00E709F608DFFA8046E709F208DFFA803E24
:1003CB0088828C83E709F0A3DFFA8032E309F60811
:1003DB00DFFA8078E309F208DFFA807088828C8379
:1003EB00E309F0A3DFFA806489828A83E0A3F6082D
:1003FB00DFFA805889828A83E0A3F208DFFA804C07
:10040B0080D280FA80C680D4806980F280338010DD
:10041B0080A680EA809A80A880DA80E280CA803346
:10042B0089828A83ECFAE493A3C8C582C8CCC583BE
:10043B00CCF0A3C8C582C8CCC583CCDFE9DEE7808E
:10044B000D89828A83E493A3F608DFF9ECFAA9F00D
:10045B00EDFB2289828A83ECFAE0A3C8C582C8CC63
:10046B00C583CCF0A3C8C582C8CCC583CCDFEADE7C
:10047B00E880DB89828A83E493A3F208DFF980CCDE
:10048B0088F0EF60010E4E60C388F0ED2402B404D7
:10049B000050B9F582EB2402B4040050AF2323457E
:0604AB00822390040B7394
:1004B100BB010CE58229F582E5833AF583E0225000
:1004C10006E92582F8E622BBFE06E92582F8E2224A
:0D04D100E58229F582E5833AF583E4932264
:1004DE00EF8DF0A4A8F0CF8CF0A428CE8DF0A42E32
:0204EE00FE22EC
:1004F000BC000BBE0029EF8DF084FFADF022E4CCF0
:10050000F875F008EF2FFFEE33FEEC33FCEE9DECB8
:10051000984005FCEE9DFE0FD5F0E9E4CEFD22EDFE
:10052000F8F5F0EE8420D21CFEADF075F008EF2F48
:10053000FFED33FD4007985006D5F0F222C398FD39
:050540000FD5F0EA22D6
:10054500A3F8E0C5F025F0F0E58215827002158369
:06055500E0C838F0E822C6
:10055B00BB0110E58229F582E5833AF583E0F5F0DE
:10056B00A3E0225009E92582F886F008E622BBFEBB
:10057B000AE92582F8E2F5F008E222E5832AF58301
:08058B00E993F5F0A3E99322C6
:10059300F8BB0111E58229F582E5833AF583E8F09A
:1005A300E5F0A3F0225009E92582C8F608A6F02257
:0D05B300BBFE09E92582C8F2E5F008F2223E
:1005C00075F008758200EF2FFFEE33FECD33CDCCF2
:1005D00033CCC58233C5829BED9AEC99E582984075
:1005E0000CF582EE9BFEED9AFDEC99FC0FD5F0D652
:1005F000E4CEFBE4CDFAE4CCF9A88222B800C1B97C
:100600000059BA002DEC8BF084CFCECDFCE5F0CBB9
:10061000F97818EF2FFFEE33FEED33FDEC33FCEBF2
:1006200033FB10D703994004EB99FB0FD8E5E4F9AD
:10063000FA227818EF2FFFEE33FEED33FDEC33FC9A
:10064000C933C910D7059BE99A4007EC9BFCE99A8E
:10065000F90FD8E0E4C9FAE4CCFB2275F010EF2FD3
:10066000FFEE33FEED33FDCC33CCC833C810D707D3
:100670009BEC9AE899400AED9BFDEC9AFCE899F80E
:0E0680000FD5F0DAE4CDFBE4CCFAE4C8F922A1
:0E068E00C3E49FFFE49EFEE49DFDE49CFC227D
:10069C00EB9FF5F0EA9E42F0E99D42F0E89C45F0B4
:0106AC00222B
:1006AD00E8600FECC313FCED13FDEE13FEEF13FF2B
:0306BD00D8F1224F
:0C06C000ECF0A3EDF0A3EEF0A3EFF022AD
:1006CC00A8828583F0D083D0821206E31206E3124F
:1006DC0006E31206E3E473E493A3C583C5F0C58374
:1006EC00C8C582C8F0A3C583C5F0C583C8C582C878
:0106FC0022DB
:1006FD00EC8EF0A4CCC5F0CCCDF8EFA4CEC5F02D8A
:10070D00FDE43CFCE8A42EC8C5F03DFDE43CFCEF47
:0D071D00A4FFE5F028FEE43DFDE43CFC22D5
:00000001FF
